:040000008A110D282C
:10000800FE00030E83120313A0000A08A1008A1140
:100018007D288A110F2883018A1112288A118920C4
:100028008A118A1184208A11003083120313A500D3
:100038000030A4000030A3000030A2000130831279
:100048000313A207003003180130A3070030031878
:100058000130A407003003180130A507A51B462866
:100068002508031D47283D302402031D4328093075
:100078002302031D432800302202031D4328031CCA
:100088004628472822288312031386140030A90023
:100098000030A8000030A7000030A600013083120D
:1000A8000313A607003003180130A7070030031810
:1000B8000130A807003003180130A907A91B7628CA
:1000C8002908031D77283D302802031D73280930AD
:1000D8002702031D732800302602031D7328031C02
:1000E80076287728522883120313861018288A1135
:1000F8000D2821088A00200E8300FE0E7E0E0900BE
:0C010800FF308316031386000800080077
:08400000FF3FFF3FFF3FFF3FC0
:02400E00FF3F72
:00000001FF
